:020000040800F2
:10000000F80600202D02000853130008991200087A
:1000100051130008230400087919000800000000AB
:1000200000000000000000000000000001150008B2
:1000300025040008000000005513000803150008FF
:10004000470200084702000847020008470200086C
:10005000470200084702000847020008470200085C
:10006000470200084702000847020008470200084C
:10007000470200084702000847020008470200083C
:10008000470200084702000847020008470200082C
:10009000470200084702000847020008470200081C
:1000A000470200084702000847020008470200080C
:1000B000470200080000000000000000470200089E
:1000C000470200080000000000000000470200088E
:1000D000000000004702000847020008000000007E
:1000E000470200084702000800000000000000006E
:1000F0000000000000000000000000000000000000
:10010000000000000000000000000000470200089E
:10011000000000000000000047020008470200083D
:10012000470200084702000847020008470200088B
:10013000470200080000000000000000000000006E
:10014000470200084702000847020008470200086B
:10015000470200084702000847020008470200085B
:10016000470200084702000847020008000000009C
:1001700047020008470200080000000000000000DD
:1001800047020008470200084702000800F002F892
:1001900000F03CF80AA090E8000C82448344AAF1E5
:1001A0000107DA4501D100F031F8AFF2090EBAE8E3
:1001B0000F0013F0010F18BFFB1A43F0010318479B
:1001C0006018000080180000103A24BF78C878C179
:1001D000FAD8520724BF30C830C144BF04680C604D
:1001E000704700000023002400250026103A28BF95
:1001F00078C1FBD8520728BF30C148BF0B60704799
:100200001FB501F0E3FB1FBD10B510BD00F0CFF826
:100210001146FFF7F5FF01F0C1FB00F0EDF803B464
:10022000FFF7F2FF03BC00F0F5F800000948804733
:1002300009480047FEE7FEE7FEE7FEE7FEE7FEE7C8
:10024000FEE7FEE7FEE7FEE704480549054A064BE0
:1002500070470000951500088D010008F800002087
:10026000F8060020F8020020F802002053EA020CF1
:1002700000F069802DE9F04B4FF00006002B1FBF06
:10028000B3FA83F503FA05F424FA05F65E4012BFCB
:100290001643B2FA82F502FA05F4C5F120051EBF35
:1002A00022FA05FC44EA0C04203556EA044C4FEAD5
:1002B000144418BF641C4FF000084FF0000990422E
:1002C00071EB030C39D3002919BFB1FA81F701FA98
:1002D00007F6B0FA80F700FA07F6C7F120071EBF4D
:1002E00020FA07FC46EA0C062037B6FBF4FCA7EB25
:1002F0000507103F07F01F0BCBF120060CFA0BFB94
:100300002CFA06F644BFB3460026202FA4BF5E4653
:100310004FF0000B5BEA060C08BF4FF0010B19EB26
:100320000B09ABFB027C48EB0608C01B06FB02CCAA
:100330000BFB03CC71EB0C01C1E70B4602464146B7
:100340004846BDE8F08B13B54FF000004FF00001B8
:10035000AFF30080BDE81C4070474FF0000200B5CD
:10036000134694469646203922BFA0E80C50A0E8D8
:100370000C50B1F12001BFF4F7AF090728BFA0E886
:100380000C5048BF0CC05DF804EB890028BF40F852
:10039000042B08BF704748BF20F8022B11F0804F94
:1003A00018BF00F8012B70477047704770477546BB
:1003B00000F02CF8AE4605006946534620F00700D1
:1003C000854618B020B5FFF73FFFBDE820404FF04D
:1003D00000064FF000074FF000084FF0000B21F02F
:1003E0000701AC46ACE8C009ACE8C009ACE8C009FC
:1003F000ACE8C0098D46704710B50446AFF30080E5
:100400002046BDE81040FFF70ABF000000487047D3
:100410009400002001491820ABBEFEE72600020030
:100420007047FEE7704772B6FEE700002DE9FC4F0B
:10043000DFF880A1002301250AF1040B03244FF00B
:100440000F0C0BF1040EAEE005FA03F632406FD04C
:100450004F68012F05D0022F03D0112F01D0122F8A
:1004600017D1D0F808905F0004FA07F829EA0809C4
:100470000097D1F80C8008FA07F848EA0908C0F894
:1004800008804768B7430E79C6F300169E403E4386
:100490004660C6684FEA430804FA08F7BE4301976E
:1004A0008F6807FA08F73743C7604E68022E01D0FD
:1004B000122E13D1DE0800EB86060096366A5F071F
:1004C000FF0E0CFA07F926EA0906D1F8109009FA8E
:1004D00007F949EA0609009EC6F820900768019EC0
:1004E000B7430E7906F0030606FA08F63E430660A7
:1004F0004E68F60056D5304E376E47F00107376626
:10050000366E23F0030706F0010600962B4E3E449C
:10051000B146B6689F074FEA17780CFA08F7BE4352
:10052000B0F1904F05D0264FB84204D1012708E022
:1005300038E0002705E0234FB84201D1022700E050
:10054000072707FA08F73743C9F80870DAF8006098
:100550005746D1F8048096435FEAC83800D5164361
:100560003E60DBF800605F46D1F8048096435FEAA6
:10057000883800D516433E60DEF800607746D1F833
:10058000048096435FEAC82800D516433E60094FB1
:100590000C373E68D1F8048096435FEA882800D57E
:1005A00016433E605B1C0A6832FA03F67FF44CAFD8
:1005B00000F00AB8000401400010024000000140B1
:1005C00000040048000800481CBCBDE8E08F00693A
:1005D000084000D0012070470AB1816170478162F4
:1005E000704700000148806870470000000000204C
:1005F0000248816802781144816070470000002041
:1006000010B50024032000F063F80F2000F008F874
:1006100008B1012401E000F025F8204610BD0000DB
:1006200070B50E4E05460024307898B14FF47A71BB
:10063000B1FBF0F00A490968B1FBF0F000F0A8FD49
:1006400040B9102D06D200222946501E00F020F895
:10065000756000E00124204670BD0000000000200D
:100660000C000020094808B5016E41F00101016647
:10067000016E01F001010091816D41F080518165B1
:10068000806D00F08050009008BD00000010024016
:10069000F0B40E4B1B680C46C3F30223C3F10705ED
:1006A000042D00D90425191D072901D2002300E0DB
:1006B000DB1E012606FA05F1491E214099409E40A5
:1006C000761E16403143F0BC01F057B90CED00E046
:1006D000064900F0070208684FF6FF03184040EA99
:1006E0000220034A10430860704700000CED00E050
:1006F0000000FA051649B0F5007F0868C0F34120F4
:1007000009D0022805D0086820F4C06040F4806059
:100710000860002070470128FBD0086820F4C06002
:1007200040F4007008600B483222006850430A4AC7
:10073000B0FBF2F0401C00E0401E4A69520501D5B2
:100740000028F9D148694005E3D50320704700002F
:10075000007000400C00002040420F00024800687A
:1007600000F4C0607047000000700040024801685B
:1007700041F48071016070470070004002480168D8
:1007800041F0040101607047001002402DE9F84F6C
:100790000446002700889C4D3E46000515D5E06BB9
:1007A00060B1B0F5000F04D0B0F5400F2BD0012799
:1007B0000AE0E86840F48030E86024E00021201D71
:1007C00000F0CAFD07001ED03E462068800338D5E1
:1007D000A86D4FF00008C00009D4A86D40F080500B
:1007E000A865A86D4FF0010800F080500090DFF878
:1007F0001CA2DAF8001041F48071CAF80010FFF76B
:10080000F1FE814610E0D5F88800E16B20F440004D
:100810000843C5F88800D8E7FFF7E4FEA0EB09001D
:10082000022801D9032704E0DAF80000C005F3D557
:10083000EFB33E46B8F1000F03D0A86D20F0805012
:10084000A8652078C00707D0D5F88800216A20F075
:1008500003000843C5F888002078800707D5D5F83D
:100860008800616A20F00C000843C5F888002078F1
:10087000800607D5D5F88800A16A20F440600843B7
:10088000C5F888002088800507D5D5F88800616BF9
:1008900020F440200843C5F888002088400509D589
:1008A000D5F88800A16B20F44010084300E02EE04A
:1008B000C5F888002078400607D5D5F88800E16A99
:1008C00020F440500843C5F888002088C00507D5AB
:1008D000D5F88800216B20F440300843C5F8880023
:1008E00020884FF0006780044FF080684ED5D5F81F
:1008F0008800216C20F040600843C5F88800206C17
:10090000B8423BD1E86840F48010E8603EE0D5F89A
:10091000900010F4407014D0216D814211D0D5F8B0
:100920009000D5F8901020F4407041F48031C5F863
:100930009010D5F8901021F48031C5F89010C5F8CA
:100940009000C00711D0FFF74DFE074641F28839ED
:1009500007E000BFFFF746FEC11B494501D903264A
:1009600068E7D5F890008007F4D5D5F89000216DA0
:1009700020F440700843C5F890005BE7404505D17E
:100980000121201D00F0E8FC00B10646206840036C
:1009900017D5D5F88800616C20F040600843C5F891
:1009A0008800606CB84204D1E86840F48010E860C8
:1009B00007E0404505D10121201D00F0CDFC00B12C
:1009C00006462088400411D5D5F88800A16C20F097
:1009D00040500843C5F88800A06CB0F1805F05D195
:1009E0000221201D00F0B8FC00B10646208800045A
:1009F00006D555F8880FE16C20F080400843286048
:100A0000304600F005B800000010024000700040C1
:100A100018BCBDE8E08F00002DE9F0470F46050047
:100A200058D0404E306800F00700B84209D2306814
:100A300020F0070038433060306800F00700B8420B
:100A400048D12878384CC0072CD06868032811D0CA
:100A5000022812D0216898B1490500293ADAA16824
:100A600021F003010143A160FFF7BCFD804641F284
:100A7000883910E021688901EFE721688903ECE7F4
:100A80008907EAE7FFF7AEFDA0EB0801494502D967
:100A90000320BDE8F087A068696800F00C00B0EBA7
:100AA000810FEFD12878800705D5A068A96820F0CC
:100AB000F0000843A060306800F00700B8420BD98E
:100AC000306820F0070038433060306800F00700DD
:100AD000B84201D00120DCE72878400705D5A0689E
:100AE000E96820F4E0600843A0602878000706D594
:100AF000A068296920F4605040EAC100A06000F0BD
:100B00003FF8A168094AC1F30311515C01F01F01CC
:100B1000C8400749086007480068BDE8F047FFF78C
:100B20007FBD00000020024000100240D8190008DC
:100B30000C00002004000020054806490068896870
:100B4000054AC1F30221515C01F01F01C840704702
:100B50000C00002000100240181A00080548064941
:100B600000688968054AC1F3C221515C01F01F0188
:100B7000C84070470C00002000100240181A0008FE
:100B800070B52549002318468A68CC6812F00C021B
:100B900004F00306214C4FEA640509D00C2A05D065
:100BA000042A32D0082A00D1284670BD012E10D167
:100BB0000B681B0704D4D1F89430C3F3032302E07D
:100BC0000B68C3F30313164E56F82330DAB10C2A20
:100BD000EBD1C86800F00300022818D0032818D011
:100BE0001846CA68CB68C2F30212C3F30623434314
:100BF000521CB3FBF2F2C868C0F34160401C4000D5
:100C0000B2FBF0F070BD184670BD204670BD2046A6
:100C1000E7E72846E5E70000001002400024F40062
:100C2000E81900082DE9F84304006FD0FE4DA868CC
:100C300000F00C06E86800F003072078C00664D5D1
:100C400076B10C2E01D1012F0AD0A06900282868A6
:100C50007AD040F001002860FFF7C4FC80465DE0D8
:100C60002868800702D5A0690028DED0216A28689C
:100C7000000703D5286800F0F00004E0D5F89400E0
:100C8000F02202EA1010814216D9084600F0FAFB61
:100C900000283BD1286840F0080028602868216AB5
:100CA00020F0F000084328606868E16920F47F4084
:100CB00040EA0120686016E0286840F008002860DB
:100CC0002868216A20F0F000084328606868E1691C
:100CD00020F47F4040EA0120686026B9206A00F0D5
:100CE000D1FB0028D5D1FFF74BFFA968CF4AC1F34C
:100CF0000311515C01F01F01C840CD490860CD4887
:100D00000068FFF78DFC00287ED12EE0CAE000BF0E
:100D1000FFF768FCA0EB0800022876D82868800757
:100D2000F6D5286840F0080028602868216A20F07D
:100D3000F000084328606868E16920F47F4040EAD9
:100D40000120686011E0FFE720F001002860FFF754
:100D500049FC804606E000BFFFF744FCA0EB08001A
:100D60000228DAD828688007F6D42078C00740D057
:100D7000082E18D00C2E01D1032F14D06068B0F5C6
:100D8000803F17D0B0F5A02F286817D020F480300E
:100D90002860286820F4802028606068E0B1FFF7B0
:100DA00021FC804614E02868800322D56068002872
:100DB00078D01EE0286840F48030EDE740F48020D1
:100DC0002860F7E7FFF70EFCA0EB08006428A4D822
:100DD00028688003F6D50CE0FFF704FC804605E0A8
:100DE000FFF700FCA0EB0800642896D82868800371
:100DF000F6D4207880073BD5042E11D00C2E01D1DB
:100E0000022F0DD0E06801E0B6E1FFE0002828687D
:100E10001ED040F480702860FFF7E4FB07460CE02A
:100E2000286840050CD5E0680028C1D008E000BF64
:100E3000FFF7D8FBC01B022893D828684005F7D5D8
:100E40006868217C20F0F85040EA016068600FE09B
:100E500020F480702860FFF7C5FB074605E000BF5F
:100E6000FFF7C0FBC01B0228B1D828684005F7D4A3
:100E70002078000729D560690028D5F8940012D0A1
:100E800040F00100C5F89400FFF7ACFB074604E012
:100E9000FFF7A8FBC01B022899D8D5F8940080075B
:100EA000F6D512E02BE120F00100C5F89400FFF721
:100EB00099FB074605E000BFFFF794FBC01B022823
:100EC00085D8D5F894008007F6D42078400766D5F9
:100ED000A86D0027C00008D4A86D40F08050A86518
:100EE000A86D012700F08050009053480168C905A3
:100EF00012D40168814641F480710160FFF772FBF2
:100F0000804605E0FFF76EFBA0EB080002287DD8C5
:100F1000D9F80000C005F5D5A068012816D005282D
:100F2000D5F8900017D020F00100C5F89000D5F852
:100F3000900020F0040000BFC5F89000A06841F2C6
:100F40008839C0B1FFF74EFB80460FE0D5F890001E
:100F500040F00100F0E740F00400C5F89000F5E72C
:100F6000FFF740FBA0EB080149454FD8D5F89000AA
:100F70008007F5D50EE0FFF735FB804606E000BFA1
:100F8000FFF730FBA0EB080149453FD8D5F89000AA
:100F90008007F5D41FB1A86D20F08050A865207897
:100FA000800628D5606A0028D5F8980012D040F055
:100FB0000100C5F89800FFF715FB074605E000BFE4
:100FC000FFF710FBC01B022820D8D5F89800800737
:100FD000F6D510E020F00100C5F89800FFF702FBFD
:100FE000074604E0FFF7FEFAC01B02280ED8D5F82A
:100FF00098008007F6D4A06AA8B1022824D00C2E4D
:101000007DD0286820F08070286000E0B3E0286878
:10101000000103D4E86820F00300E860E8680749AD
:101020000840E8600CE09FE000100240D81900087A
:101030000C0000200400002000700040FFFFEEFEC6
:10104000FFF7D0FA044699E0E868E26A00F003018D
:10105000914226D1216B00F07002090110399142B2
:101060001FD1626B00F4FE41B1EB022F19D194F84D
:10107000382000F07841B1EBC26F12D1A18F00F49B
:10108000C00249084905A1F50011914209D194F81F
:10109000401000F0C06049084906A1F1007181428A
:1010A0004BD00C2E6FD0286840016CD4286820F0FB
:1010B00080702860FFF796FA064604E0FFF792FA80
:1010C000801B022857D828688001F7D4F4E90B0167
:1010D0006FF00F0202EB01110843218A5204490804
:1010E00002EB4151A26841EA02210843217D4FF001
:1010F0007E42490802EB41610843217B00E042E067
:1011000040EAC160E968214A11400843E860286864
:1011100040F080702860E86840F08070E860FFF779
:1011200061FA044605E000BFFFF75CFA001B0228E5
:1011300021D828688001F7D523E02868800120D4D1
:10114000286840F080702860E86840F08070E860AF
:10115000FFF748FA044604E0FFF744FA001B0228B0
:1011600009D828688001F7D50BE000BFFFF73AFAED
:10117000001B022802D90320BDE8F88328688001FB
:10118000F4D40020F8E70120F6E700008C809D01F0
:1011900010B5401EB0F1807F01D3012010BD4FF08B
:1011A000E02460610F21601700F0E7FB0020A061E0
:1011B00007202061002010BD10B5040002D0A06FF0
:1011C00010B107E0012010BD002084F87400204613
:1011D00000F026F82420A0672068016821F00101B2
:1011E0000160204600F086FA0128ECD0606A10B158
:1011F000204600F0EDF92068416821F490414160FB
:101200002068816821F02A0181602068016841F02E
:10121000010101602046BDE8104000F03DBA000029
:1012200030B59BB00446142115A8FFF796F8542159
:101230006846FFF792F816492068884226D10224B2
:101240000025684609950094FFF7A0FA08B1FFF75A
:10125000EAF81048816D41F400318165816D01F437
:1012600000311A91C16C41F00101C164C06C15A933
:1012700000F001001A900C2081E831000320189042
:10128000072019904FF09040FFF7D0F81BB030BD09
:101290000044004000100240FEE7000030B587B077
:1012A00014216846FFF759F81948C16C41F0040150
:1012B000C164C16C01F004010591C16C41F00101F0
:1012C000C164C16C01F001010591C16C41F00201E2
:1012D000C164C06C0F4D00F002000590002208218F
:1012E0002846FFF779F900240220CDE90004694679
:1012F00028460294FFF79AF8082000900120CDE9D3
:101300000104694628460394FFF790F807B030BD02
:1013100000100240000400480C4810B50A49016062
:101320004FF4E1314160002181600C22C160C0E9CD
:1013300004128161C16101624162FFF73DFF002833
:1013400001D072B6FEE710BD00440040100000203E
:10135000FEE7FEE7704700002DE9F041444C0546EA
:101360008846E0680026810728680DD0E16801F012
:101370000301814216D1A8B1E0686968C0F3021088
:10138000401C88420ED120E0012804D0022805D05C
:10139000032807D108E02168890701E02168490591
:1013A000002907DB01265FE02168890302D4216858
:1013B0004903F5E7E1686A686FF00F0321F07301F4
:1013C00003EB021211430143E160206820F08060CA
:1013D0002060FFF707F9074605E000BFFFF702F9B5
:1013E000C01B022837D820680001F7D4B8F1000FDD
:1013F00018D0B8F1010F1DD0287D4FF07E41400874
:1014000001EB4060A96840EA01202169194A1140B6
:1014100008432061206840F080602060FFF7E2F818
:1014200007461AE0A868297B000240EAC1602169EA
:10143000114AECE7288A1149400801EB4050A9689D
:1014400040EA012021690E4AE1E700BFFFF7CAF830
:10145000C01B022801D9032606E020680001F5D54B
:101460002069A969084320613046BDE8F081000089
:1014700000100240FF80FFF9FF80FF070000E0FF3F
:10148000FF809FFFF8B51C4D06460024A86DC000E4
:1014900002D5FFF763F90DE0A86D40F08050A86514
:1014A000A86D00F080500090FFF758F9A96D21F069
:1014B0008051A965B0F5007F04D0802E07D94FF088
:1014C00003040AE0802E08D9A02E01D804E001D13F
:1014D000022402E0702E00D101240848016821F0A6
:1014E000070121430160006800F00700A04201D01D
:1014F0000120F8BD0020F8BD00100240002002408D
:101500007047FFF775B8000010B596B044216846E3
:10151000FEF723FF142111A8FEF71FFF4FF4007000
:10152000FFF7E8F808B172B6FEE7FFF71FF91848B1
:1015300050F8901F21F01801016014200090012044
:101540000290002460210690CDE907410221CDE9F7
:101550000A100C9028200D900720CDE90E01684656
:101560001091FFF75FFB08B172B6FEE70F201190F4
:101570000320CDE912041494042111A81594FFF757
:101580004BFA08B172B6FEE7FFF7F8F816B010BDD7
:10159000001002400B48016841F4700101600A48E4
:1015A000016841F001010160002181600268074B80
:1015B0001A4002608214C260026822F48022026033
:1015C0008161704788ED00E000100240FFFFF6EAFD
:1015D00090F82410C90706D001684A68836A22F48B
:1015E00000321A434A6090F82410890706D5016832
:1015F0004A68C36A22F480321A434A6090F8241081
:10160000490706D501684A68036B22F480221A4311
:101610004A6090F82410090706D501684A68436BB0
:1016200022F400421A434A6090F82410C90606D5F5
:1016300001688A68836B22F480521A438A6090F8AA
:101640002410890606D501688A68C36B22F400520B
:101650001A438A6090F82410490611D501684A6837
:10166000036C22F480121A434A60016CB1F5801FAA
:1016700006D101684A68436C22F4C0021A434A60EA
:1016800090F82410090606D501684A68806C22F497
:10169000002202434A607047F8B500260446C0F8AD
:1016A0008060FEF79FFF0546206800686FF07E4768
:1016B000000708D52B4600224FF400112046009762
:1016C00000F008F960B92068006840070AD52B4689
:1016D00000224FF480012046009700F0FBF808B18B
:1016E0000320F8BD2020A067E067266684F87460B8
:1016F0000020F8BD2DE9F041044600682269A16888
:10170000E669114362690025324311436A4B02685E
:101710006A4E32400A43026020684168E26821F460
:101720004051114341602168A069994201D0226A69
:1017300010438A6822F4306202438A606049276855
:1017400060488F420DD1D0F8880010F0030006D019
:10175000012838D0022834D0032821D135E00121D6
:101760001FE059498F420BD1D0F8880010F00C00CF
:1017700025D0042827D0082823D00C2810D124E015
:101780009F420DD1D0F8880010F4406017D0B0F51A
:10179000806F18D0B0F5006F13D0B0F5406F14D043
:1017A00010214A4800264FF400429F422DD171B1CA
:1017B000022912D004290DD0082971D123E000217B
:1017C000EFE70221EDE70421EBE70821E9E7FFF766
:1017D000B3F901E0FFF7D4F9E8B3626802EB420124
:1017E00081425DD8B0EB023F5AD8010E0302500887
:1017F000181871410023FEF739FD354AA0F54071F4
:10180000914251D94CE01046E7E7E3694FF6EF7794
:10181000934229D1092943D2DFE801F005080E429D
:101820000B4242422400FFF787F904E0FFF796F9E4
:1018300001E0FFF7A5F970B14100606801EB5001CC
:10184000B1FBF0F080B2A0F11001B94228D84FF6F8
:10185000F071014000E029E0C0F34200014320683C
:10186000C16023E01046E7E7092919D2DFE801F05B
:1018700005080E180B1818181A00FFF75DF904E098
:10188000FFF76CF901E0FFF77BF978B1616800EBD5
:101890005100B0FBF1F080B2A0F11001B94203D9C0
:1018A000012503E01046F1E72168C8606666284616
:1018B000A666BDE8F081000000800040F369FFEFFC
:1018C0000038014000100240004400400024F400B1
:1018D000FFFC0F002DE9F0479A4617460E460446D6
:1018E0004FF000094FF02008089D39E0681C37D000
:1018F000FEF778FEA0EB0A00A84222D80DB32068BC
:10190000016849072CD5C069C043000528D4216867
:101910004FF4006008622068016821F4D071016012
:101920002068816821F001018160C4F87880C4F8E2
:101930007C80C4F8808000BF84F874900320BDE8E8
:10194000F0872068016821F4D07101602068816807
:1019500021F001018160C4F87880C4F87C80EBE755
:101960002068C06936EA000004D00020B842BDD02B
:101970000020E4E70120F9E7FEE70907090E002847
:1019800004DB00F1E02080F80014704700F00F0045
:1019900000F1E02080F8141D70470000FEF730FED3
:1019A000FFF7B2FDFFF77AFCFFF7B6FC064C022109
:1019B0002046FEF70CFE08B1012200E000220821BB
:1019C0002046FEF709FEF2E7000400484FF04070A1
:1019D000E1EE100A70470000000000000000000067
:1019E0000102030406070809A0860100400D030058
:1019F000801A060000350C0040420F0080841E0053
:101A000000093D0000127A000024F40000366E0147
:101A10000048E801006CDC02000000000102030441
:101A2000401A00080000002010000000C801000853
:101A3000501A000810000020E8060000E401000829
:101A400001000000100000000000000000093D003F
:040000050800018D61
:00000001FF
