:020000040800F2
:10000000682000200D030008271800087D1700084D
:100010002518000843060008DD1E00080000000047
:100020000000000000000000000000002D02000899
:10003000450600080000000089020008D9190008E0
:1000400027030008270300082703000827030008E8
:1000500027030008270300082703000827030008D8
:1000600027030008270300082703000827030008C8
:1000700027030008270300082703000827030008B8
:1000800027030008270300082703000827030008A8
:100090002703000827030008270300082703000898
:1000A00027030008BD1A00082703000827030008DB
:1000B00027030008000000000000000027030008DC
:1000C00027030008000000000000000027030008CC
:1000D00000000000270300082703000800000000BC
:1000E00027030008270300080000000000000000AC
:1000F0000000000000000000000000000000000000
:1001000000000000000000000000000027030008BD
:10011000000000000000000027030008270300087B
:100120002703000827030008270300082703000807
:10013000270300080000000000000000000000008D
:1001400027030008270300082703000827030008E7
:1001500027030008270300082703000827030008D7
:1001600027030008270300082703000800000000F9
:10017000270300082703000800000000000000001B
:1001800027030008270300082703000800F002F8EF
:1001900000F03CF80AA090E8000C82448344AAF1E5
:1001A0000107DA4501D100F031F8AFF2090EBAE8E3
:1001B0000F0013F0010F18BFFB1A43F0010318479B
:1001C000BC390000DC390000103A24BF78C878C17F
:1001D000FAD8520724BF30C830C144BF04680C604D
:1001E000704700000023002400250026103A28BF95
:1001F00078C1FBD8520728BF30C148BF0B60704799
:100200001FB503F0FDFB1FBD10B510BD00F0E0F9F8
:100210001146FFF7F5FF01F077FE00F0FEF903B499
:10022000FFF7F2FF03BC00F005FA00002C4B196841
:10023000086800F05AB880F30988BFF36F8F4FF059
:10024000000080F311887047000000000848006833
:10025000006880F308884FF0000080F3148862B6CD
:1002600061B6BFF34F8FBFF36F8F00DF00BF00BFDA
:1002700008ED00E0DFF80C00016841F47001016056
:10028000704700BF88ED00E0EFF30980BFF36F8F88
:10029000134B1A681EF0100F08BF20ED108A20E9DA
:1002A000F04F106009B44FF0500080F31188BFF395
:1002B0004F8FBFF36F8F02F003FE4FF0000080F30B
:1002C000118809BC1968086800F014B81EF0100FF6
:1002D00008BF00F014B880F30988BFF36F8F704730
:1002E00028000020EFF30580704730C8B0E8C04F09
:1002F000FFF7A1BF30C8B0E8C04FFFF7E7BFB0ECD1
:10030000088AB0EC08CAFFF7E6BF0000094880473A
:1003100009480047FEE7FEE7FEE7FEE7FEE7FEE7E7
:10032000FEE7FEE7FEE7FEE704480549054A064BFF
:1003300070470000811A00088D010008681A00202B
:1003400068200020681C0020681C002053EA020C72
:1003500000F069802DE9F04B4FF00006002B1FBF25
:10036000B3FA83F503FA05F424FA05F65E4012BFEA
:100370001643B2FA82F502FA05F4C5F120051EBF54
:1003800022FA05FC44EA0C04203556EA044C4FEAF4
:10039000144418BF641C4FF000084FF0000990424D
:1003A00071EB030C39D3002919BFB1FA81F701FAB7
:1003B00007F6B0FA80F700FA07F6C7F120071EBF6C
:1003C00020FA07FC46EA0C062037B6FBF4FCA7EB44
:1003D0000507103F07F01F0BCBF120060CFA0BFBB3
:1003E0002CFA06F644BFB3460026202FA4BF5E4673
:1003F0004FF0000B5BEA060C08BF4FF0010B19EB46
:100400000B09ABFB027C48EB0608C01B06FB02CCC9
:100410000BFB03CC71EB0C01C1E70B4602464146D6
:100420004846BDE8F08B13B54FF000004FF00001D7
:10043000AFF30080BDE81C407047032A40F23080D3
:1004400010F0030C00F0158011F8013BBCF1020F15
:10045000624498BF11F801CB00F8013B38BF11F896
:10046000013BA2F1040298BF00F801CB38BF00F8AD
:10047000013B11F0030300F05780083AC0F00880F8
:1004800051F8043B083A51F804CBA0E80810F5E70E
:10049000121D5CBF51F8043B40F8043BAFF30080F1
:1004A000D20724BF11F8013B11F801CB48BF11F866
:1004B000012B24BF00F8013B00F801CB48BF00F836
:1004C000012B704702F0FF0343EA032242EA024293
:1004D00000F05EB84FF0000200B513469446964611
:1004E000203922BFA0E80C50A0E80C50B1F1200147
:1004F000BFF4F7AF090728BFA0E80C5048BF0CC0F5
:100500005DF804EB890028BF40F8042B08BF704752
:1005100048BF20F8022B11F0804F18BF00F8012BC4
:10052000704770477047704710B5203AC0F00B8095
:10053000B1E81850203AA0E81850B1E81850A0E8E7
:100540001850BFF4F5AF5FEA027C24BFB1E8185041
:10055000A0E8185044BF18C918C0BDE810405FEAB1
:10056000827C24BF51F8043B40F8043B08BF70472D
:10057000D20728BF31F8023B48BF11F8012B28BF32
:1005800020F8023B48BF00F8012B70474FF00002F3
:100590000429C0F0128010F0030C3FF49DAFCCF1A1
:1005A000040CBCF1020F18BF00F8012BA8BF20F803
:1005B000022BA1EB0C01FFF78FBF5FEAC17C24BFC8
:1005C00000F8012B00F8012B48BF00F8012B704701
:1005D000754600F02BF8AE4605006946534620F0FC
:1005E0000700854618B020B5FFF79EFEBDE8204005
:1005F0004FF000064FF000074FF000084FF0000BDF
:1006000021F00701AC46ACE8C009ACE8C009ACE891
:10061000C009ACE8C0098D46704710B50446AFF379
:1006200000802046BDE81040FFF7F9BD0048704744
:10063000041A002001491820ABBEFEE72600020084
:100640007047FEE7704772B6FEE700002DE9FC4FE9
:10065000DFF880A1002301250AF1040B03244FF0E9
:100660000F0C0BF1040EAEE005FA03F632406FD02A
:100670004F68012F05D0022F03D0112F01D0122F68
:1006800017D1D0F808905F0004FA07F829EA0809A2
:100690000097D1F80C8008FA07F848EA0908C0F872
:1006A00008804768B7430E79C6F300169E403E4364
:1006B0004660C6684FEA430804FA08F7BE4301974C
:1006C0008F6807FA08F73743C7604E68022E01D0DB
:1006D000122E13D1DE0800EB86060096366A5F07FD
:1006E000FF0E0CFA07F926EA0906D1F8109009FA6C
:1006F00007F949EA0609009EC6F820900768019E9E
:10070000B7430E7906F0030606FA08F63E43066084
:100710004E68F60056D5304E376E47F00107376603
:10072000366E23F0030706F0010600962B4E3E447A
:10073000B146B6689F074FEA17780CFA08F7BE4330
:10074000B0F1904F05D0264FB84204D1012708E000
:1007500038E0002705E0234FB84201D1022700E02E
:10076000072707FA08F73743C9F80870DAF8006076
:100770005746D1F8048096435FEAC83800D516433F
:100780003E60DBF800605F46D1F8048096435FEA84
:10079000883800D516433E60DEF800607746D1F811
:1007A000048096435FEAC82800D516433E60094F8F
:1007B0000C373E68D1F8048096435FEA882800D55C
:1007C00016433E605B1C0A6832FA03F67FF44CAFB6
:1007D00000F00AB80004014000100240000001408F
:1007E00000040048000800481CBCBDE8E08F0AB1C6
:1007F00081617047816270470148806870470000DE
:100800001800002002488168027811448160704716
:100810001800002010B50024032000F08DF80F20F0
:1008200000F008F808B1012401E000F03DF820468E
:1008300010BD000000B5014687B00022192000F06D
:100840005BF8192000F04AF81348016E41F400618A
:100850000166006E05A900F400600690684600F08D
:100860009FFA00F0CFFA0D490D4AB0FBF1F10D48A7
:10087000491E0260416040F2E7320021C0E90321D5
:10088000816000F0DCFD10B1012007B000BD05481B
:1008900000F008FEF9E700000010024040420F009F
:1008A000002C01402C0100200B4882B0016E41F069
:1008B00001010166016E01F001010091816D41F0BD
:1008C00080518165806D002200F0805000900F21E2
:1008D000901E02B000F010B800100240002809DBA2
:1008E00000F01F02012191404009800000F1E0204A
:1008F000C0F8001170470000F0B40E4B1B680C46A6
:10090000C3F30223C3F10705042D00D90425191DE3
:10091000072901D2002300E0DB1E012606FA05F1BB
:10092000491E214099409E40761E16403143F0BC3E
:1009300001F0D5BA0CED00E0064900F007020868A6
:100940004FF6FF03184040EA0220034A10430860B4
:10095000704700000CED00E00000FA051649B0F504
:10096000007F0868C0F3412009D0022805D008683C
:1009700020F4C06040F480600860002070470128C7
:10098000FBD0086820F4C06040F4007008600B4899
:100990003222006850430A4AB0FBF2F0401C00E0EB
:1009A000401E4A69520501D50028F9D14869400521
:1009B000E3D50320704700000070004024000020B1
:1009C00040420F000248006800F4C0607047000019
:1009D000007000400248016841F480710160704776
:1009E000007000400248016841F004010160704756
:1009F000001002402DE9F84F0446002700889C4D66
:100A00003E46000515D5E06B60B1B0F5000F04D08F
:100A1000B0F5400F2BD001270AE0E86840F48030A1
:100A2000E86024E00021201D00F0FEFE07001ED03B
:100A30003E462068800338D5A86D4FF00008C000FE
:100A400009D4A86D40F08050A865A86D4FF001084A
:100A500000F080500090DFF81CA2DAF8001041F49A
:100A60008071CAF80010FFF7C7FE814610E0D5F884
:100A70008800E16B20F440000843C5F88800D8E7FF
:100A8000FFF7BAFEA0EB0900022801D9032704E012
:100A9000DAF80000C005F3D5EFB33E46B8F1000F19
:100AA00003D0A86D20F08050A8652078C00707D03B
:100AB000D5F88800216A20F003000843C5F88800B3
:100AC0002078800707D5D5F88800616A20F00C00EF
:100AD0000843C5F888002078800607D5D5F8880037
:100AE000A16A20F440600843C5F88800208880058A
:100AF00007D5D5F88800616B20F440200843C5F87D
:100B000088002088400509D5D5F88800A16B20F41D
:100B10004010084300E02EE0C5F888002078400629
:100B200007D5D5F88800E16A20F440500843C5F89D
:100B300088002088C00507D5D5F88800216B20F4EF
:100B400040300843C5F8880020884FF000678004D3
:100B50004FF080684ED5D5F88800216C20F04060B9
:100B60000843C5F88800206CB8423BD1E86840F4DF
:100B70008010E8603EE0D5F8900010F4407014D08A
:100B8000216D814211D0D5F89000D5F8901020F455
:100B9000407041F48031C5F89010D5F8901021F4E0
:100BA0008031C5F89010C5F89000C00711D0FFF74C
:100BB00023FE074641F2883907E000BFFFF71CFE1D
:100BC000C11B494501D9032668E7D5F89000800785
:100BD000F4D5D5F89000216D20F440700843C5F895
:100BE00090005BE7404505D10121201D00F01CFE6F
:100BF00000B106462068400317D5D5F88800616C1F
:100C000020F040600843C5F88800606CB84204D109
:100C1000E86840F48010E86007E0404505D1012114
:100C2000201D00F001FE00B106462088400411D5C9
:100C3000D5F88800A16C20F040500843C5F8880022
:100C4000A06CB0F1805F05D10221201D00F0ECFD09
:100C500000B106462088000406D555F8880FE16CDF
:100C600020F0804008432860304600F005B80000BE
:100C7000001002400070004018BCBDE8E08F00008A
:100C80002DE9F0470F46050058D0404E306800F07F
:100C90000700B84209D2306820F0070038433060BE
:100CA000306800F00700B84248D12878384CC007B7
:100CB0002CD06868032811D0022812D0216898B17E
:100CC000490500293ADAA16821F003010143A16036
:100CD000FFF792FD804641F2883910E021688901D2
:100CE000EFE721688903ECE78907EAE7FFF784FD6E
:100CF000A0EB0801494502D90320BDE8F087A068B0
:100D0000696800F00C00B0EB810FEFD12878800704
:100D100005D5A068A96820F0F0000843A0603068FD
:100D200000F00700B8420BD9306820F007003843C4
:100D30003060306800F00700B84201D00120DCE7E5
:100D40002878400705D5A068E96820F4E0600843EA
:100D5000A0602878000706D5A068296920F46050B3
:100D600040EAC100A06000F05FF8A168094AC1F341
:100D70000311515C01F01F01C84007490860074892
:100D80000068BDE8F047FFF755BD000000200240B5
:100D900000100240CC3A0008240000201C00002073
:100DA0000F2202600C4A936803F0030343609368C8
:100DB00003F0F0038360936803F4E063C360926818
:100DC0004FF4E06303EAD20202610448006800F0D5
:100DD0000700086070470000001002400020024039
:100DE0000548064900688968054AC1F30221515C3B
:100DF00001F01F01C840704724000020001002408D
:100E00000C3B00080548064900688968054AC1F39B
:100E1000C221515C01F01F01C8407047240000202E
:100E2000001002400C3B000870B52549002318460D
:100E30008A68CC6812F00C0204F00306214C4FEAD9
:100E4000640509D00C2A05D0042A32D0082A00D122
:100E5000284670BD012E10D10B681B0704D4D1F8B1
:100E60009430C3F3032302E00B68C3F30313164E5D
:100E700056F82330DAB10C2AEBD1C86800F0030031
:100E8000022818D0032818D01846CA68CB68C2F3C5
:100E90000212C3F306234343521CB3FBF2F2C868A9
:100EA000C0F34160401C4000B2FBF0F070BD18463A
:100EB00070BD204670BD2046E7E72846E5E7000004
:100EC000001002400024F400DC3A00082DE9F84349
:100ED00004006FD0FE4DA86800F00C06E86800F032
:100EE00003072078C00664D576B10C2E01D1012FFE
:100EF0000AD0A069002828687AD040F00100286054
:100F0000FFF77AFC80465DE02868800702D5A0697B
:100F10000028DED0216A2868000703D5286800F081
:100F2000F00004E0D5F89400F02202EA10108142AB
:100F300016D9084600F00EFD00283BD1286840F085
:100F4000080028602868216A20F0F0000843286023
:100F50006868E16920F47F4040EA0120686016E09B
:100F6000286840F0080028602868216A20F0F00016
:100F7000084328606868E16920F47F4040EA012066
:100F8000686026B9206A00F0E5FC0028D5D1FFF79B
:100F90004BFFA968CF4AC1F30311515C01F01F0157
:100FA000C840CD490860CD480068FFF743FC0028E1
:100FB0007ED12EE0CAE000BFFFF71EFCA0EB0800C8
:100FC000022876D828688007F6D5286840F00800FF
:100FD00028602868216A20F0F000084328606868CB
:100FE000E16920F47F4040EA0120686011E0FFE7FA
:100FF00020F001002860FFF7FFFB804606E000BFFD
:10100000FFF7FAFBA0EB08000228DAD8286880076F
:10101000F6D42078C00740D0082E18D00C2E01D16D
:10102000032F14D06068B0F5803F17D0B0F5A02F23
:10103000286817D020F480302860286820F48020A9
:1010400028606068E0B1FFF7D7FB804614E02868AD
:10105000800322D56068002878D01EE0286840F41C
:101060008030EDE740F480202860F7E7FFF7C4FB0D
:10107000A0EB08006428A4D828688003F6D50CE00B
:10108000FFF7BAFB804605E0FFF7B6FBA0EB0800D0
:10109000642896D828688003F6D4207880073BD54A
:1010A000042E11D00C2E01D1022F0DD0E06801E0EA
:1010B000B6E1FFE0002828681ED040F48070286068
:1010C000FFF79AFB07460CE0286840050CD5E0685E
:1010D0000028C1D008E000BFFFF78EFBC01B02282C
:1010E00093D828684005F7D56868217C20F0F8502F
:1010F00040EA016068600FE020F480702860FFF72C
:101100007BFB074605E000BFFFF776FBC01B02280C
:10111000B1D828684005F7D42078000729D5606940
:101120000028D5F8940012D040F00100C5F89400D2
:10113000FFF762FB074604E0FFF75EFBC01B0228D7
:1011400099D8D5F894008007F6D512E02BE120F06D
:101150000100C5F89400FFF74FFB074605E000BF0C
:10116000FFF74AFBC01B022885D8D5F894008007FA
:10117000F6D42078400766D5A86D0027C00008D4B3
:10118000A86D40F08050A865A86D012700F0805040
:10119000009053480168C90512D40168814641F4A2
:1011A00080710160FFF728FB804605E0FFF724FB14
:1011B000A0EB080002287DD8D9F80000C005F5D5BD
:1011C000A068012816D00528D5F8900017D020F087
:1011D0000100C5F89000D5F8900020F0040000BF91
:1011E000C5F89000A06841F28839C0B1FFF704FB50
:1011F00080460FE0D5F8900040F00100F0E740F0A5
:101200000400C5F89000F5E7FFF7F6FAA0EB080137
:1012100049454FD8D5F890008007F5D50EE0FFF787
:10122000EBFA804606E000BFFFF7E6FAA0EB080104
:1012300049453FD8D5F890008007F5D41FB1A86D77
:1012400020F08050A8652078800628D5606A0028A4
:10125000D5F8980012D040F00100C5F89800FFF7CB
:10126000CBFA074605E000BFFFF7C6FAC01B02280D
:1012700020D8D5F898008007F6D510E020F00100BE
:10128000C5F89800FFF7B8FA074604E0FFF7B4FA8C
:10129000C01B02280ED8D5F898008007F6D4A06AA3
:1012A000A8B1022824D00C2E7DD0286820F08070B0
:1012B000286000E0B3E02868000103D4E86820F06B
:1012C0000300E860E86807490840E8600CE09FE038
:1012D00000100240CC3A0008240000201C0000202E
:1012E00000700040FFFFEEFEFFF786FA044699E02B
:1012F000E868E26A00F00301914226D1216B00F018
:1013000070020901103991421FD1626B00F4FE4155
:10131000B1EB022F19D194F8382000F07841B1EBED
:10132000C26F12D1A18F00F4C00249084905A1F58E
:101330000011914209D194F8401000F0C0604908B2
:101340004906A1F1007181424BD00C2E6FD0286864
:1013500040016CD4286820F080702860FFF74CFAB8
:10136000064604E0FFF748FA801B022857D8286891
:101370008001F7D4F4E90B016FF00F0202EB0111C9
:101380000843218A5204490802EB4151A26841EA0C
:1013900002210843217D4FF07E42490802EB416162
:1013A0000843217B00E042E040EAC160E968214A4D
:1013B00011400843E860286840F080702860E868C1
:1013C00040F08070E860FFF717FA044605E000BFC0
:1013D000FFF712FA001B022821D828688001F7D5F0
:1013E00023E02868800120D4286840F080702860BD
:1013F000E86840F08070E860FFF7FEF9044604E01A
:10140000FFF7FAF9001B022809D828688001F7D5F0
:101410000BE000BFFFF7F0F9001B022802D9032000
:10142000BDE8F88328688001F4D40020F8E70120A3
:10143000F6E700008C809D0170477047704710B53B
:10144000040003D094F83D0010B107E0012010BD66
:10145000002084F83C00204600F022F8022084F8A6
:101460003D00211D206800F02FFB012084F848007A
:1014700084F83E0084F83F0084F8400084F841007E
:1014800084F8420084F8430084F8440084F845005E
:1014900084F8460084F8470084F83D00002010BD21
:1014A0007047000090F83D10012901D001207047DD
:1014B000022180F83D100168CA6842F00102CA604A
:1014C00000680B49884205D0B0F1804F02D009492D
:1014D000884207D18168084A1140062906D0B1F533
:1014E000803F03D0016841F0010101600020704796
:1014F000002C01400040014007000100704770B51A
:101500000446006801694FF00005C943890715D4F6
:10151000C168C943890711D4E91E01610120207700
:10152000206880698007204602D0FFF7E7FF04E0CB
:1015300000F0A7F8204600F0A5F82577206801699B
:10154000C943490717D4C168C943490713D46FF089
:1015500004010161022020772068806910F4407F37
:10156000204602D0FFF7CAFF04E000F08AF82046C8
:1015700000F088F8257720680169C943090716D467
:10158000C168C943090712D46FF008010161042042
:1015900020772068C0698007204602D0FFF7AEFFA1
:1015A00004E000F06EF8204600F06CF82577206823
:1015B0000169C943C90617D4C168C943C90613D410
:1015C0006FF010010161082020772068C06910F4D5
:1015D000407F204602D0FFF791FF04E000F051F871
:1015E000204600F04FF8257720680169C943C907F4
:1015F00008D1C168C943C90704D1891E01612046C9
:1016000000F042F820680169C943090609D4C1689D
:10161000C943090605D46FF0800101612046FFF738
:101620000CFF20680169C943C90509D4C168C943D1
:10163000090605D46FF4807101612046FFF7FCFEB6
:1016400020680169C943490609D4C168C9434906EC
:1016500005D46FF040010161204600F01FF82068BA
:101660000169C94389060BD4C168C943890607D4F7
:101670006FF0200101612046BDE87040FFF7DEBE3B
:1016800070BD70477047000000680349884201D16F
:10169000FFF7B8B870470000002C0140704710B544
:1016A000040002D0A06F10B107E0012010BD00209F
:1016B00084F87400204600F025F82420A0672068F4
:1016C000016821F001010160204600F0C5FA0128FF
:1016D000ECD0606A10B1204600F02CFA2068416816
:1016E00021F4904141602068816821F02A018160E5
:1016F0002068016841F0010101602046BDE810400A
:1017000000F07CBA30B59BB00446142115A8FEF752
:10171000E1FE54216846FEF7DDFE16492068884246
:1017200026D102240025684609950094FFF762F946
:1017300008B1FEF788FF1048816D41F400318165E2
:10174000816D01F400311A91C16C41F00101C16455
:10175000C06C15A900F001001A900C2081E831003E
:1017600003201890072019904FF09040FEF76EFF6D
:101770001BB030BD0044004000100240FEE70000F6
:1017800010B586B014216846FEF7A4FE1548C16C5A
:1017900041F00401C164C16C01F004010591C16C08
:1017A00041F00101C164C16C01F001010591C16CFE
:1017B00041F00201C164C06C0B4C00F002000590C6
:1017C000002208212046FFF712F80820009001208F
:1017D0000021CDE90101039169462046FEF736FF5D
:1017E00006B010BD00100240000400480C4810B5BF
:1017F0000A4901604FF4E1314160002181600C220F
:10180000C160C0E904128161C16101624162FFF7F8
:1018100046FF002801D072B6FEE710BD004400402C
:10182000A8000020FEE7FEE72DE9F041444C054604
:101830008846E0680026810728680DD0E16801F03D
:101840000301814216D1A8B1E0686968C0F30210B3
:10185000401C88420ED120E0012804D0022805D087
:10186000032807D108E02168890701E021684905BC
:10187000002907DB01265FE02168890302D4216883
:101880004903F5E7E1686A686FF00F0321F073011F
:1018900003EB021211430143E160206820F08060F5
:1018A0002060FEF7A9FF074605E000BFFEF7A4FF92
:1018B000C01B022837D820680001F7D4B8F1000F08
:1018C00018D0B8F1010F1DD0287D4FF07E4140089F
:1018D00001EB4060A96840EA01202169194A1140E2
:1018E00008432061206840F080602060FEF784FF9C
:1018F00007461AE0A868297B000240EAC160216916
:10190000114AECE7288A1149400801EB4050A968C8
:1019100040EA012021690E4AE1E700BFFEF76CFFB3
:10192000C01B022801D9032606E020680001F5D576
:101930002069A969084320613046BDE8F0810000B4
:1019400000100240FF80FFF9FF80FF070000E0FF6A
:10195000FF809FFFF8B51C4D06460024A86DC0000F
:1019600002D5FFF72FF80DE0A86D40F08050A86574
:10197000A86D00F080500090FFF724F8A96D21F0C9
:101980008051A965B0F5007F04D0802E07D94FF0B3
:1019900003040AE0802E08D9A02E01D804E001D16A
:1019A000022402E0702E00D101240848016821F0D1
:1019B000070121430160006800F00700A04201D048
:1019C0000120F8BD0020F8BD0010024000200240B8
:1019D000012000F0DDFAFBE710B54FF0E0200069D0
:1019E00001F044FE012803D0BDE8104001F020BB07
:1019F00010BD000010B596B044216846FEF76AFDA0
:101A0000142111A8FEF766FD4FF40070FEF7A6FF43
:101A100008B172B6FEE7FEF7DDFF184850F8901FD8
:101A200021F0180101601420009001200290002490
:101A300060210690CDE907410221CDE90A100C9002
:101A400028200D900720CDE90E0168461091FFF780
:101A50003DFA08B172B6FEE70F2011900320CDE9E0
:101A600012041494042111A81594FFF709F908B180
:101A700072B6FEE7FEF7B6FF16B010BD00100240CA
:101A80000B48016841F4700101600A48016841F0A7
:101A900001010160002181600268074B1A40026069
:101AA0008214C260026822F4802202608161704761
:101AB00088ED00E000100240FFFFF6EA0148FFF762
:101AC0001EBD00002C01002070B50268164B4FF0BF
:101AD0008046984201D0B04203D122F070044A6897
:101AE0002243124C124D984205D0B04203D0A0427E
:101AF00001D0A84203D122F44076CA6832434E692D
:101B000022F08002324302608A68C2620A688262FE
:101B1000984203D0A04201D0A84201D109690163D3
:101B20000121416170BD0000002C014000400140D6
:101B30000044014090F82410C90706D001684A68A3
:101B4000836A22F400321A434A6090F8241089070D
:101B500006D501684A68C36A22F480321A434A6093
:101B600090F82410490706D501684A68036B22F4EF
:101B700080221A434A6090F82410090706D50168AC
:101B80004A68436B22F400421A434A6090F82410DA
:101B9000C90606D501688A68836B22F480521A430D
:101BA0008A6090F82410890606D501688A68C36B9C
:101BB00022F400521A438A6090F82410490611D585
:101BC00001684A68036C22F480121A434A60016C6F
:101BD000B1F5801F06D101684A68436C22F4C00247
:101BE0001A434A6090F82410090606D501684A682D
:101BF000806C22F4002202434A607047F8B5002648
:101C00000446C0F88060FEF7F7FD054620680068CE
:101C10006FF07E47000708D52B4600224FF40011D5
:101C20002046009700F008F960B920680068400776
:101C30000AD52B4600224FF480012046009700F081
:101C4000FBF808B10320F8BD2020A067E0672666F6
:101C500084F874600020F8BD2DE9F0410446006866
:101C60002269A168E6691143626900253243114384
:101C70006A4B02686A4E32400A430260206841683B
:101C8000E26821F44051114341602168A069994202
:101C900001D0226A10438A6822F4306202438A60CB
:101CA0006049276860488F420DD1D0F8880010F055
:101CB000030006D0012838D0022834D0032821D1CF
:101CC00035E001211FE059498F420BD1D0F888003F
:101CD00010F00C0025D0042827D0082823D00C2889
:101CE00010D124E09F420DD1D0F8880010F440605C
:101CF00017D0B0F5806F18D0B0F5006F13D0B0F5E5
:101D0000406F14D010214A4800264FF400429F42F1
:101D10002DD171B1022912D004290DD0082971D119
:101D200023E00021EFE70221EDE70421EBE70821A2
:101D3000E9E7FFF755F801E0FFF776F8E8B36268E6
:101D400002EB420181425DD8B0EB023F5AD8010E4E
:101D500003025008181871410023FEF7F7FA354ABC
:101D6000A0F54071914251D94CE01046E7E7E36994
:101D70004FF6EF77934229D1092943D2DFE801F0EA
:101D800005080E420B4242422400FFF729F804E006
:101D9000FFF738F801E0FFF747F870B141006068DD
:101DA00001EB5001B1FBF0F080B2A0F11001B9429B
:101DB00028D84FF6F071014000E029E0C0F342005E
:101DC00001432068C16023E01046E7E7092919D2E2
:101DD000DFE801F005080E180B1818181A00FEF7B6
:101DE000FFFF04E0FFF70EF801E0FFF71DF878B100
:101DF000616800EB5100B0FBF1F080B2A0F110017E
:101E0000B94203D9012503E01046F1E72168C86013
:101E100066662846A666BDE8F081000000800040A6
:101E2000F369FFEF00380140001002400044004019
:101E30000024F400FFFC0F002DE9F0479A461746F6
:101E40000E4604464FF000094FF02008089D39E087
:101E5000681C37D0FEF7D0FCA0EB0A00A84222D8BD
:101E60000DB32068016849072CD5C069C04300053F
:101E700028D421684FF4006008622068016821F4CA
:101E8000D07101602068816821F001018160C4F88F
:101E90007880C4F87C80C4F8808000BF84F8749097
:101EA0000320BDE8F0872068016821F4D07101604B
:101EB0002068816821F001018160C4F87880C4F84D
:101EC0007C80EBE72068C06936EA000004D000207F
:101ED000B842BDD00020E4E70120F9E7FEE709079A
:101EE000090E002804DB00F1E02080F800147047A0
:101EF00000F00F0000F1E02080F8141D7047012071
:101F000000F046F8FBE70000FEF784FCFFF772FDE7
:101F1000FFF736FCFFF76AFC00F04AF8164A012189
:101F2000032000F075F8154C134A01212061183286
:101F3000032000F06DF8104A6061903A00211048CB
:101F400000F0AAF80C4A20606C3A00210D4800F01D
:101F5000A3F8094A6060483A00210B4800F09CF859
:101F6000054AA060243A0021084800F095F8E06096
:101F700000F032F8FEE700009C3A00080000002064
:101F8000D1190008A92A0008B12A0008FF1E00087C
:101F900010B50146EFF3058010B16FF0050404E0C1
:101FA000002411B1084600F0CDFE204610BD00000F
:101FB000EFF30580002802D06FF005007047054858
:101FC000016811B14FF0FF3070470121016000201E
:101FD000704700007800002010B5EFF3058000285E
:101FE00002D06FF0050010BD07480168012902D03A
:101FF0004FF0FF3010BD054A002111700221016031
:1020000000F00EFF002010BD780000201FED00E062
:10201000F8B5844614464FF00005EFF3058000281C
:1020200038D1BCF1000F35D0002933D0421EB4B1F5
:10203000A06858B1E368502B08D3236933B16369B2
:102040000CFB01F6B34201D3012209E040B9E0687C
:1020500030B9206920B9606910B9002200E000227F
:10206000012A01D04AB10DE0002000906046A3682B
:10207000226901F015F8054604E00022604600F0F0
:10208000EDFF054635B10CB1216800E0002128467E
:1020900000F01EFE2846F8BD2DE9F04385B00B4642
:1020A0004FF000070497EFF3058100294ED1002877
:1020B0004CD080244FF0180C8946491E52B3166844
:1020C00006B1B146956905B1AC46ACF10105382DB4
:1020D00003D2157915F0010F03D005B00020BDE83B
:1020E000F083556905B1AC08D2F80880B8F1000F4B
:1020F00007D0D6685C2E04D3166916B10DB1012144
:1021000009E0B8F1000F06D1D56825B9156915B9F0
:10211000002100E00021012901D061B116E09168A1
:10212000126901920291CDF800C02246494601F0A1
:102130006CFA04900AE004A90191A2B2CDF800C0A3
:10214000494601F029FA012800D00497049805B007
:10215000BDE8F0832DE9F04104460F46134EF568C3
:102160003068001D00F0B0FCB4F1FF3F07D137B17B
:102170003068BDE8F041011D0D4800F0F8BC2C446A
:1021800030684460AC4206D23068011DB06BBDE8D7
:10219000F04100F0D1BC3068011D706B00F0CCFC48
:1021A000B06A844200D2B462BDE8F0812800002009
:1021B0006806002070B5044600F0E6FC1C4DA868D7
:1021C000401CA860286810B1686938B10CE02C6028
:1021D000A868012808D100F093F905E02868E16AB1
:1021E000C06A884200D82C60686A401C68626064DB
:1021F000E06A2969884200D928610E4900EB800015
:1022000001EB8000211D00F0B2FC00F0DDFC6869EC
:1022100000280CD02868E16AC06A884207D20649C3
:102220004FF080500860BFF34F8FBFF36F8F70BDCA
:1022300028000020B801002004ED00E038B500F0CF
:10224000A3FC0F4C2068B8B90E4800F067FC0E489C
:1022500000F064FC0B48E0601430206100200B4B60
:10226000009003F1500210210A2000F019FF2060B5
:1022700010B107A100F02CFDBDE8384000F0A4BC6F
:10228000640000206C070020800700207C060020EE
:10229000546D72510000000070B50D4C606800284C
:1022A00015D00C4E00F070FCF068C568281D00F0D9
:1022B0000BFCA068401EA0606068401E606000F0DB
:1022C00083FC284600F051F860680028EAD170BD10
:1022D00028000020540600200B46026C002A0CD077
:1022E000C1681144C160D0F808C0614501D30168DC
:1022F000C160C1681846FEF7A0B870472DE9F041EB
:10230000044616460027A56B226C002A10D0C6B1E1
:10231000E068FEF792F8E168206C091AE160226833
:10232000914202D2A168081AE060022E16D017E08E
:102330002068A8B9A06801F013FA07460020A06041
:102340000EE06068FEF779F8216C60680844606010
:10235000A168884204D32068606001E005B16D1E69
:10236000681CA0633846BDE8F08110B5044694F8B7
:10237000591000290BD0012911D0022914D0502066
:1023800080F31188BFF34F8FBFF36F8FFEE7206B91
:1023900000F030FC2046BDE8104000F02BBC204689
:1023A000BDE8104000F026BC10BD00000749CA6817
:1023B0001168002904D00021016019B10020704784
:1023C0000121F9E7D0680068704700006400002030
:1023D00040F6B8310F4810F0070F05D0C01D20F0AF
:1023E00007000C4A821A891A0B4A106000235360B6
:1023F0000144083921F00701183A11604B600B6065
:102400000B1A436001604068906050604FF00040DC
:10241000506170474C0E002094000020074E4FF092
:102420008054074DFFF738FF30680128FAD92C6037
:10243000BFF34F8FBFF36F8FF4E70000B8010020A8
:1024400004ED00E070B51D46049C002909D022600F
:10245000E06321640121204600F05AFE84F84C50CC
:1024600070BD2460F4E72DE9F05F82460B9F0A9D62
:102470000C9C0E4690469B464FEA8801A522206B95
:10248000FEF720F8206BA8F1010100EB810020F09D
:1024900007094FF0000866B100202218315C82F86D
:1024A0003410315C11B1401C1028F6D384F84380FD
:1024B00001E084F83480382D00D33725E562E564E7
:1024C000C4F85080201D00F034FB04F1180000F027
:1024D00030FB2461C5F13800A0616462C4F8548007
:1024E00084F858805A465146484600F0C7FA2060A2
:1024F000002F00D03C6000F000B830BCBDE8C09FA9
:1025000070B500240F4D04EB840005EB800000F053
:1025100005FB641C382CF6D30B4800F0FFFA0B487F
:1025200000F0FCFA0A4800F0F9FA0A4800F0F6FA5E
:10253000094800F0F3FA0948034941631431816303
:1025400070BD0000B8010020180600202C060020F5
:1025500040060020540600206806002028000020C5
:1025600010B4144900E011460A688242FBD34B685C
:1025700003EB010C844503D14068184448600846C9
:102580000C68D0F804C00CEB0003A3420CD10A4B3A
:102590001B689A4206D05268624442600A68126818
:1025A000026002E0036000E00260814200D0086047
:1025B00010BC7047940000207C00002010B500245F
:1025C00041600061DFF838C091420BD8D11A8269AE
:1025D000914201D3012410E0011DDCF8100000F04D
:1025E000ABFA0AE09A4203D2994201D3012404E0F3
:1025F000011DDCF80C0000F09FFA204610BD000021
:102600006400002010B5044600F0BEFAA06B20B1B3
:10261000002400F0D9FA204610BD0124F9E710B5D6
:10262000044600F0B1FAA06BE16B884201D10124AD
:1026300000E0002400F0C8FA204610BDF8B50546B9
:102640000E461748C068C068C468201D00F03CFAF8
:1026500094F8280010F0040F18D0A0692B464119F7
:1026600032462046FFF7AAFFA0B1002003460146EC
:1026700000902A46204601F089F958B9502080F38D
:102680001188BFF34F8FBFF36F8FFEE720F001007B
:1026900084F82800216A01B02046BDE8F0400847D0
:1026A0006400002030B587B0414D002202A928689F
:1026B00000F08EFE002875D00298002803DA039AF5
:1026C0000599049890470298002864DB049C60698F
:1026D00010B1201D00F0F8F901A800F0B3F802468F
:1026E00002980A2857D2DFE800F00505052F364D7D
:1026F00005052F3694F8280040F0010084F82800E2
:102700000398A169034601442046FFF757FF0028BC
:1027100041D0216A2046884794F8280010F0040F21
:1027200039D0002000900398A1690023421819466F
:10273000204601F02BF970BB502080F31188BFF3C5
:102740004F8FBFF36F8FFEE794F8280020F0010051
:1027500084F828001FE094F8280040F0010084F875
:1027600028000398A06128B1811813462046FFF77E
:1027700025FF10E0502080F31188BFF34F8FBFF387
:102780006F8FFEE794F8280010F0020F0CD020F0B5
:10279000010084F82800002202A9286800F018FE31
:1027A000002889D107B030BD204600F023FAF2E7B7
:1027B00064000020F8B505460C4600F079FB684639
:1027C00000F040F80646009810B101F045F8F8BD59
:1027D00044B9B54206D801F03FF831462846FFF724
:1027E0002DFFF8BD0C481CB10169096891B10024A6
:1027F000A91B2246006800F07FFA01F02DF800289E
:10280000EFD106494FF080500860BFF34F8FBFF300
:102810006F8FF8BD0124EBE76400002004ED00E0B9
:102820000749486B0068002805D0486BC068C0683D
:102830004068886270474FF0FF3088627047000040
:102840002800002070B5044600F01EFF0546074E24
:10285000B068854204D200F00BF80120206001E04E
:1028600000202060B560284670BD00006400002094
:10287000F8B51C4EF0680068002826D00027F068E4
:10288000C0680568C468201D00F01EF9216A204652
:10289000884794F8280010F0040F12D0A06928444B
:1028A000A84206D960602461211DF06800F044F957
:1028B00007E000232A4619462046009701F066F8F3
:1028C00040B1F06800680028D9D1F0683169F16042
:1028D0003061F8BD502080F31188BFF34F8FBFF3F4
:1028E0006F8FFEE7640000200A484068B0F1FF3FA8
:1028F00007D0502080F31188BFF34F8FBFF36F8F45
:10290000FEE7502080F31188BFF34F8FBFF36F8F26
:10291000FEE700009C00002082B001A8FFF746FD02
:102920000199FFF747FFFFF7BDFEF6E770B50446D4
:1029300000F02AF994F94550002D0CDD606A50B181
:1029400004F1240000F04CFF08B100F02BFA681EDF
:1029500045B2002DF2DC4FF0FF3684F8456000F000
:1029600033F900F011F994F94450002D0CDD206981
:1029700050B104F1100000F033FF08B100F012FA7A
:10298000681E45B2002DF2DC84F84460BDE870405A
:1029900000F01AB92DE9F0410546002600F088FA4A
:1029A000344F386808B9FFF713FD7869054251D1F3
:1029B0009DB1083515F0070F0FD005F00700C0F1E5
:1029C0000800054415F0070F07D0502080F3118848
:1029D000BFF34F8FBFF36F8FFEE7002D3AD07868BB
:1029E000854237D824490846046801E02146044658
:1029F0006068A84202D220680028F7D13868844273
:102A000028D0086800F10806206808606068411B4B
:102A100010290FD9601910F0070F07D0502080F34C
:102A20001188BFF34F8FBFF36F8FFEE74160656082
:102A3000FFF796FD61687868401A7860BA6890423E
:102A400000D2B86078690843606000202060F868B0
:102A5000401CF86000F000FF16F0070F07D0502070
:102A600080F31188BFF34F8FBFF36F8FFEE73046BF
:102A7000BDE8F0817C00002094000020001F4FF092
:102A800080730360001F21F001010160001F0549F0
:102A9000016014380260001F6FF0020101602038ED
:102AA00070470000E92800080120FFF771FAFBE7F2
:102AB000044C012208212046FDF799FE0120FFF772
:102AC00067FAF6E7000400480169436882689A6083
:102AD000836842685A604A68824201D182684A60CB
:102AE000002202610868401E086008687047000004
:102AF000034B036003F15C000860802010607047A6
:102B000094070020044B036003F15C0008604FF45D
:102B10008070106070470000F009002000F108018B
:102B200041604FF0FF328260C160016100210160AD
:102B3000704700210161704710B4D1F800C0BCF1AA
:102B4000FF3F02D000F1080202E0026904E01A46E9
:102B500053681C686445FAD953684B6099608A6071
:102B6000516008610168491C016010BC70474268EF
:102B70004A6093688B60936859609160086101684E
:102B8000491C016070470000502080F31188BFF39A
:102B90004F8FBFF36F8F0A494868401C4860012877
:102BA0000CD10848006810F0FF0F07D0502080F3C8
:102BB0001188BFF34F8FBFF36F8FFEE770470000A0
:102BC0009C00002004ED00E009494868002806D078
:102BD000401E4860002801D180F3118870475020C2
:102BE00080F31188BFF34F8FBFF36F8FFEE70000B4
:102BF0009C00002070B500282AD0A0F10804154DD3
:102C000060686969084207D1502080F31188BFF3DA
:102C10004F8FBFF36F8FFEE722683AB1502080F3E9
:102C20001188BFF34F8FBFF36F8FFEE7884360605B
:102C300000F03EF960686968084468602046FFF764
:102C40008FFC2869401C2861BDE8704000F004BE7C
:102C500070BD00007C0000204FF0E02000210161E9
:102C6000816105494FF47A720968B1FBF2F1491E9E
:102C700041610721016170472400002010B5FDF774
:102C800031FB114910280ED300F1E02090F8F00339
:102C90000A78904207D2502080F31188BFF34F8FFB
:102CA000BFF36F8FFEE709480068896800F4E060B1
:102CB000884207D9502080F31188BFF34F8FBFF3AC
:102CC0006F8FFEE710BD00009C0000200CED00E0BF
:102CD0000022084B53F832C0BCF1000F03D0521C45
:102CE000082AF7D3704743F8321003EBC20148605B
:102CF000704700007801002070B504460D46164666
:102D0000FFF742FF94F94400B0F1FF3F4FF000009D
:102D100001D184F8440094F94510B1F1FF3F01D18D
:102D200084F84500FFF750FFA06B28B932462946CA
:102D300004F1240000F056F82046BDE87040FFF78B
:102D4000F5BD000010B502460020002A12D00F4841
:102D5000006B38B1502080F31188BFF34F8FBFF361
:102D60006F8FFEE700F0A4F800211046FFF7F2F99C
:102D700000F072FD002807D105494FF0805008602F
:102D8000BFF34F8FBFF36F8F10BD000028000020EE
:102D900004ED00E002490A6A0260C96841607047B8
:102DA0002800002001490120C86170472800002048
:102DB00010B50C4600280BD0094A126802F1180120
:102DC000FFF7BAFE2046BDE810400121FFF7C2B967
:102DD000502080F31188BFF34F8FBFF36F8FFEE752
:102DE0002800002070B50D46144600280DD00B4970
:102DF00009681831FFF7BBFE0CB14FF0FF352146D3
:102E00002846BDE87040FFF7A5B9502080F311882F
:102E1000BFF34F8FBFF36F8FFEE700002800002045
:102E200030B587B000250695059504AA05A906A822
:102E3000FFF75EFE06980599019102900023009528
:102E400017A11948049A00F0E0FB184CE06208B1A1
:102E5000012000E00020012801D100F063FD0128DD
:102E60000AD0B0F1FF3F19D1502080F31188BFF391
:102E70004F8FBFF36F8FFEE7502080F31188BFF3B1
:102E80004F8FBFF36F8F4FF0FF30A0620120606162
:102E9000E56007B0BDE8304000F048B807B030BD8D
:102EA00049444C45000000001D2400082800002073
:102EB0000248016B491C0163704700002800002094
:102EC000184B186B002802D00120D86170470020F1
:102ED000D8611869144900EB800251F822203AB9F0
:102EE000C0B1401E00EB800251F82220002AF7D02A
:102EF00000EB800201EB82014A6852684A6001F1EE
:102F0000080C624501D152684A604968C968196075
:102F100018617047502080F31188BFF34F8FBFF3C3
:102F20006F8FFEE728000020B801002010B582B0A6
:102F300038480168384A914207D1502080F31188FF
:102F4000BFF34F8FBFF36F8FFEE7006833498842AE
:102F500007D1502080F31188BFF34F8FBFF36F8FDD
:102F6000FEE72F4908780190FF200870087800904C
:102F70009DF800009DF8002000F0F000904207D07E
:102F8000502080F31188BFF34F8FBFF36F8FFEE7A0
:102F90009DF80000234C00F0500020700720A06036
:102FA0009DF8000010F0800F0BD0A068401EA060BC
:102FB0009DF80000400000909DF8000010F0800F88
:102FC000F3D1A068032807D0502080F31188BFF305
:102FD0004F8FBFF36F8FFEE74FF44070A0600198F2
:102FE00008701148016841F470010160016841F006
:102FF00070410160FFF730FE00206060FDF73AF994
:103000000A48016841F040410160FDF71FF902B034
:10301000002010BD00ED00E071C20F4170C20F41F1
:1030200000E400E09C00002020ED00E034EF00E030
:1030300010B5502080F31188BFF34F8FBFF36F8F0F
:1030400000F028FB18B104494FF0805008600020C0
:1030500080F3118810BD000004ED00E0F8B50546CE
:103060000E461746002D13D005FB06F05030FFF733
:1030700091FC044654B104F15002002084F846004B
:103080003B46314628460094FFF7DCF92046F8BD60
:10309000502080F31188BFF34F8FBFF36F8FFEE78F
:1030A00038B5049D002804D05BB102B189B1C2B12A
:1030B00020E0502080F31188BFF34F8FBFF36F8F54
:1030C000FEE7502080F31188BFF34F8FBFF36F8F5F
:1030D000FEE7502080F31188BFF34F8FBFF36F8F4F
:1030E000FEE739B1502080F31188BFF34F8FBFF353
:1030F0006F8FFEE74FF0500CCDF800C01C46012347
:1031000084F846302B460094FFF79CF9204638BDE2
:1031100070B504460D46002C25D0FFF735FD226C16
:10312000E16B206801FB0200A0600020A063206822
:103130006060E16B226C2068491E01FB0200E060C8
:103140004FF0FF3084F8440084F845009DB104F14D
:103150001000FFF7E3FC04F12400FFF7DFFCFFF7AA
:1031600033FD012070BD502080F31188BFF34F8FD5
:10317000BFF36F8FFEE720690028F0D004F1100044
:1031800000F02EFB0028EAD004494FF08050086080
:10319000BFF34F8FBFF36F8FE1E7000004ED00E056
:1031A0002DE9FF4782B004468A461F460025002CC1
:1031B00003D0BAF1000F08D011E0502080F311883D
:1031C000BFF34F8FBFF36F8FFEE7206C38B15020F5
:1031D00080F31188BFF34F8FBFF36F8FFEE7022F8D
:1031E0000AD1E06B012807D0502080F31188BFF38B
:1031F0004F8FBFF36F8FFEE700F038FA48B904989D
:1032000038B1502080F31188BFF34F8FBFF36F8F19
:10321000FEE700264FF08058DFF8F090FFF7B4FC8F
:10322000A06BE16B884205D3022F03D0049808B34A
:1032300035B329E03A4651462046FFF75FF8616A08
:1032400059B104F1240000F0CBFA68B1C9F800804C
:10325000BFF34F8FBFF36F8F06E028B1C9F800802E
:10326000BFF34F8FBFF36F8FFFF7AEFC06B00120A7
:10327000BDE8F087FFF7A8FC06B00020BDE8F087A6
:103280006846FFF787FD0125FFF79EFCFFF710FE5C
:10329000FFF77AFC94F94400B0F1FF3F01D184F8C4
:1032A000446094F94500B0F1FF3F01D184F84560D6
:1032B000FFF78AFC04A9684600F02EF940B12046C9
:1032C000FFF734FB00F0C8FA06B00020BDE8F08735
:1032D0002046FFF7A4F990B104F110000499FFF71C
:1032E00067FD2046FFF722FB00F0B6FA002895D1D3
:1032F000C9F80080BFF34F8FBFF36F8F8EE7204672
:10330000FFF714FB00F0A8FA88E7000004ED00E0E6
:103310002DE9F0470446894617461E46002C03D087
:10332000B9F1000F08D011E0502080F31188BFF3ED
:103330004F8FBFF36F8FFEE7206C38B1502080F3C2
:103340001188BFF34F8FBFF36F8FFEE7022E0AD1B4
:10335000E06B012807D0502080F31188BFF34F8F16
:10336000BFF36F8FFEE7FFF789FC5020EFF3118862
:1033700080F31188BFF34F8FBFF36F8FA06BE16BAA
:10338000884206D3022E04D0002088F31188BDE8BD
:10339000F08794F94550A06B324649462046FEF727
:1033A000ADFFB5F1FF3F04D0681C84F84500012053
:1033B000EBE7606A0028FAD004F1240000F010FA6C
:1033C0000028F4D0002FF2D001203860EFE7000091
:1033D0002DE9F74783B004468A460025002C03D028
:1033E000BAF1000F08D011E0502080F31188BFF32C
:1033F0004F8FBFF36F8FFEE7206C38B1502080F302
:103400001188BFF34F8FBFF36F8FFEE700F02EF9E7
:1034100048B9059838B1502080F31188BFF34F8F19
:10342000BFF36F8FFEE700274FF08058DFF8E4907E
:10343000FFF7AAFBA66BC6B151462046FEF74CFF2C
:10344000701EA063206950B104F1100000F0C8F9AB
:1034500028B1C9F80080BFF34F8FBFF36F8FFFF71C
:10346000B3FB06B00120BDE8F087059808B135B17F
:1034700009E0FFF7A9FB06B00020BDE8F087684629
:10348000FFF788FC0125FFF79FFBFFF711FDFFF712
:103490007BFB94F94400B0F1FF3F01D184F8447004
:1034A00094F94500B0F1FF3F01D184F84570FFF772
:1034B0008BFB05A9684600F02FF868B12046FFF79E
:1034C00035FA00F0C9F92046FFF79CF80028AFD084
:1034D00006B00020BDE8F0872046FFF793F890B1D2
:1034E00004F124000599FFF763FC2046FFF71EFA5C
:1034F00000F0B2F900289BD1C9F80080BFF34F8FCC
:10350000BFF36F8F94E72046FFF710FA00F0A4F99D
:103510008EE7000004ED00E070B505460C46002D76
:1035200015D0E4B1FFF730FBDFF868C0DCF80C0021
:103530006B68C11A2268B2F1FF3F18D02E68DCF820
:1035400020C0664515D0834213D801241DE05020C9
:1035500080F31188BFF34F8FBFF36F8FFEE75020CA
:1035600080F31188BFF34F8FBFF36F8FFEE7002406
:103570000BE08A4206D9501A20602846FFF70AFC61
:10358000002402E0002020600124FFF71DFB2046FC
:1035900070BD0000280000202DE9F04F85B0814665
:1035A0000F9F0E9E8A4690469B464FEA8800FFF783
:1035B000F1F9054628000AD05C20FFF7EBF9044634
:1035C0000CB1256304E02846FFF714FB00E000245B
:1035D0009CB1002084F8590003905B464246514656
:1035E0000197009602944846FEF73DFF2046FEF7FD
:1035F000E1FD05B0012000F005B805B04FF0FF3047
:1036000000F000B830BCBDE8C08F70B586B006468B
:10361000DDF828C00C9C0B98002816D0ECB15C2576
:1036200004952063022084F85900002005AD039022
:10363000CDF800C0019502943046FEF714FF2046F5
:10364000FEF7B8FD059806B070BD502080F31188D4
:10365000BFF34F8FBFF36F8FFEE7502080F31188C9
:10366000BFF34F8FBFF36F8FFEE70000054841693E
:10367000002903D0006B18B100207047012070476B
:1036800002207047280000200148C06870470000F1
:10369000280000202DE9F04100262F4F386B00282C
:1036A00005D0B869401CB8613046BDE8F081F868C3
:1036B000451CFD609DB9786B006838B1502080F3DF
:1036C0001188BFF34F8FBFF36F8FFEE7786BB96B35
:1036D0007963B863386A401C3862FFF7A1F8B86AAA
:1036E000DFF8788085420DD3786B006838B1786B4D
:1036F000C068C4686068854212D2B86202E04FF0C8
:10370000FF30B8623868C06A00EB800058F82000CB
:10371000012800D90126F8690028C5D00126C3E791
:10372000201DFFF7D1F9A06A18B104F11800FFF7C6
:10373000CBF9E16A3869814200D9396101EB810036
:1037400008EB8000211DFFF712FAE06A3968C96AA8
:103750008842C9D30126C7E728000020B80100200D
:1037600070B504460021002833D01B4D28688442E0
:1037700007D0502080F31188BFF34F8FBFF36F8FB6
:10378000FEE7206D38B1401E2065E36CE26A9A4284
:103790001FD040B11DE0502080F31188BFF34F8F40
:1037A000BFF36F8FFEE7201DFFF78EF9E06CE0623C
:1037B000C0F13800A061E06A2969884200D9286117
:1037C000064900EB800001EB8000211DFFF7CFF9D7
:1037D0000121084670BD000028000020B80100202B
:1037E00070B5C068C468002C14D004F11800FFF74D
:1037F0006BF9164D286BA8B104F118011448FFF7B6
:10380000B6F9E06A2968C96A88421CD901200121F9
:10381000E96170BD502080F31188BFF34F8FBFF373
:103820006F8FFEE7201DFFF74FF9E06A2969884294
:1038300000D92861074900EB800001EB8000211DC1
:10384000FFF795F9DDE7002070BD0000280000209B
:1038500040060020B80100202DE9F0470024002791
:103860002D4D286B002807D0FFF78EF9286B401EDE
:103870002863286B40B149E0502080F31188BFF3E2
:103880004F8FBFF36F8FFEE7A86800283ED0234E0E
:1038900030684FF0010800B3A6F59169F068C4687C
:1038A00004F11800FFF710F9201DFFF70DF9E06A89
:1038B0002969884200D9286100EB800009EB80006B
:1038C000211DFFF754F9E06A2968C96A884201D3CB
:1038D000C5F81C8030680028E0D10CB1FEF7A0FFCD
:1038E000AC694CB1FFF7D6FE08B1C5F81C80641E68
:1038F000002CF7D10020A861E86938B101270849F8
:1039000038070860BFF34F8FBFF36F8FFFF75CF985
:103910003846BDE8F087000028000020400600205F
:1039200004ED00E030B587B00024FEF787FC134DAE
:103930002868B0B100200690059004AA05A906A841
:10394000FFF7E0F805990698022200920191029093
:1039500000230BA10C48049AFFF757FE686000B1E2
:10396000012414B107B0204630BD502080F31188E7
:10397000BFF34F8FBFF36F8FFEE70000640000209E
:10398000546D72205376630019290008F0B585B094
:1039900084460A9D16461F460022BCF1000F14D033
:1039A000164C206800B300910196CDF808C0062996
:1039B0001BDAFFF75BFE02280FD000231A46694688
:1039C0002068FFF7EDFB024615E0502080F31188D8
:1039D000BFF34F8FBFF36F8FFEE700232A46694680
:1039E0002068FFF7DDFB024605E000233A46694602
:1039F000FFF78EFC024605B01046F0BD64000020C3
:103A00004FF04070E1EE100A70470000143B0008D0
:103A100000000000000000000000000000000000A6
:103A2000000200001800000000000000000000007C
:103A3000483B0008000000000000000000000000FB
:103A4000000000000002000008000000000000006C
:103A500000000000383B00080000000000000000EB
:103A6000000000000000000000020000080000004C
:103A700000000000000000006C3B00080000000097
:103A80000000000000000000000000000002000034
:103A9000080000000000000000000000583B000883
:103AA0000000000000000000000000000000000016
:103AB00000000000203B00080000000000000000A3
:103AC00000000000000000000000000000000000F6
:103AD000000000000102030406070809A086010097
:103AE000400D0300801A060000350C0040420F0014
:103AF00080841E0000093D0000127A000024F400BA
:103B000000366E010048E801006CDC020000000095
:103B10000102030464656661756C745461736B0023
:103B20007265717565737465645F656C65766174E3
:103B30006F725F66726F6D00526571756573744662
:103B40006C6F6F720000000052657175657374458B
:103B50006C657661746F72007265717565737465FA
:103B6000645F666C6F6F72730000000048616E6482
:103B70006C65526571756573747300009C3B000839
:103B800000000020A8000000C8010008443C000814
:103B9000A8000020C01F0000E40100080000000091
:103BA0000000000000000000000000000000000015
:103BB00000000000010000001000000000000000F4
:103BC00000093D00000000000000000000000000AF
:103BD00000000000000000000000000000000000E5
:103BE00000000000000000000000000000000000D5
:103BF00000000000000000000000000000000000C5
:103C000000000000000000000000000000000000B4
:103C100000000000000000000000000000000000A4
:103C20000000000000000000000000000000000094
:103C3000000000000000000000000000AAAAAAAADC
:043C40000000000080
:040000050800018D61
:00000001FF
